{
  "contractName": "MultiSigWallet",
  "abi": [
    {
      "inputs": [],
      "payable": false,
      "stateMutability": "nonpayable",
      "type": "constructor"
    },
    {
      "payable": true,
      "stateMutability": "payable",
      "type": "fallback"
    },
    {
      "anonymous": false,
      "inputs": [
        {
          "indexed": true,
          "name": "_contributor",
          "type": "address"
        },
        {
          "indexed": false,
          "name": "_valueInWei",
          "type": "uint256"
        }
      ],
      "name": "ReceivedContribution",
      "type": "event"
    },
    {
      "anonymous": false,
      "inputs": [
        {
          "indexed": true,
          "name": "_beneficiary",
          "type": "address"
        },
        {
          "indexed": false,
          "name": "_valueInWei",
          "type": "uint256"
        }
      ],
      "name": "ProposalSubmitted",
      "type": "event"
    },
    {
      "anonymous": false,
      "inputs": [
        {
          "indexed": true,
          "name": "_approver",
          "type": "address"
        },
        {
          "indexed": true,
          "name": "_beneficiary",
          "type": "address"
        },
        {
          "indexed": false,
          "name": "_valueInWei",
          "type": "uint256"
        }
      ],
      "name": "ProposalApproved",
      "type": "event"
    },
    {
      "anonymous": false,
      "inputs": [
        {
          "indexed": true,
          "name": "_approver",
          "type": "address"
        },
        {
          "indexed": true,
          "name": "_beneficiary",
          "type": "address"
        },
        {
          "indexed": false,
          "name": "_valueInWei",
          "type": "uint256"
        }
      ],
      "name": "ProposalRejected",
      "type": "event"
    },
    {
      "anonymous": false,
      "inputs": [
        {
          "indexed": true,
          "name": "_beneficiary",
          "type": "address"
        },
        {
          "indexed": false,
          "name": "_valueInWei",
          "type": "uint256"
        }
      ],
      "name": "WithdrawPerformed",
      "type": "event"
    },
    {
      "constant": false,
      "inputs": [],
      "name": "endContributionPeriod",
      "outputs": [],
      "payable": false,
      "stateMutability": "nonpayable",
      "type": "function"
    },
    {
      "constant": true,
      "inputs": [],
      "name": "listContributors",
      "outputs": [
        {
          "name": "",
          "type": "address[]"
        }
      ],
      "payable": false,
      "stateMutability": "view",
      "type": "function"
    },
    {
      "constant": true,
      "inputs": [
        {
          "name": "_contributor",
          "type": "address"
        }
      ],
      "name": "getContributorAmount",
      "outputs": [
        {
          "name": "",
          "type": "uint256"
        }
      ],
      "payable": false,
      "stateMutability": "view",
      "type": "function"
    },
    {
      "constant": false,
      "inputs": [
        {
          "name": "_valueInWei",
          "type": "uint256"
        }
      ],
      "name": "submitProposal",
      "outputs": [],
      "payable": false,
      "stateMutability": "nonpayable",
      "type": "function"
    },
    {
      "constant": true,
      "inputs": [],
      "name": "listOpenBeneficiariesProposals",
      "outputs": [
        {
          "name": "",
          "type": "address[]"
        }
      ],
      "payable": false,
      "stateMutability": "view",
      "type": "function"
    },
    {
      "constant": true,
      "inputs": [
        {
          "name": "_beneficiary",
          "type": "address"
        }
      ],
      "name": "getBeneficiaryProposal",
      "outputs": [
        {
          "name": "",
          "type": "uint256"
        }
      ],
      "payable": false,
      "stateMutability": "view",
      "type": "function"
    },
    {
      "constant": false,
      "inputs": [
        {
          "name": "_beneficiary",
          "type": "address"
        }
      ],
      "name": "approve",
      "outputs": [],
      "payable": false,
      "stateMutability": "nonpayable",
      "type": "function"
    },
    {
      "constant": false,
      "inputs": [
        {
          "name": "_beneficiary",
          "type": "address"
        }
      ],
      "name": "reject",
      "outputs": [],
      "payable": false,
      "stateMutability": "nonpayable",
      "type": "function"
    },
    {
      "constant": true,
      "inputs": [
        {
          "name": "_signer",
          "type": "address"
        },
        {
          "name": "_beneficiary",
          "type": "address"
        }
      ],
      "name": "getSignerVote",
      "outputs": [
        {
          "name": "",
          "type": "uint256"
        }
      ],
      "payable": false,
      "stateMutability": "view",
      "type": "function"
    },
    {
      "constant": false,
      "inputs": [
        {
          "name": "_valueInWei",
          "type": "uint256"
        }
      ],
      "name": "withdraw",
      "outputs": [],
      "payable": false,
      "stateMutability": "nonpayable",
      "type": "function"
    },
    {
      "constant": true,
      "inputs": [],
      "name": "contractBalanceFunc",
      "outputs": [
        {
          "name": "",
          "type": "uint256"
        }
      ],
      "payable": false,
      "stateMutability": "view",
      "type": "function"
    },
    {
      "constant": true,
      "inputs": [],
      "name": "owner",
      "outputs": [
        {
          "name": "",
          "type": "address"
        }
      ],
      "payable": false,
      "stateMutability": "view",
      "type": "function"
    }
  ],
  "bytecode": "0x608060405234801561001057600080fd5b5033600860016101000a81548173ffffffffffffffffffffffffffffffffffffffff021916908373ffffffffffffffffffffffffffffffffffffffff1602179055506001600860006101000a81548160ff021916908315150217905550610084610089640100000000026401000000009004565b61033a565b60018060007390f8bf6a479f320ead074411a4b0e7944ea8c9c173ffffffffffffffffffffffffffffffffffffffff1673ffffffffffffffffffffffffffffffffffffffff16815260200190815260200160002060006101000a81548160ff021916908315150217905550600180600073ffcf8fdee72ac11b5c542428b35eef5769c409f073ffffffffffffffffffffffffffffffffffffffff1673ffffffffffffffffffffffffffffffffffffffff16815260200190815260200160002060006101000a81548160ff02191690831515021790555060018060007322d491bde2303f2f43325b2108d26f1eaba1e32b73ffffffffffffffffffffffffffffffffffffffff1673ffffffffffffffffffffffffffffffffffffffff16815260200190815260200160002060006101000a81548160ff021916908315150217905550600d7390f8bf6a479f320ead074411a4b0e7944ea8c9c190806001815401808255809150509060018203906000526020600020016000909192909190916101000a81548173ffffffffffffffffffffffffffffffffffffffff021916908373ffffffffffffffffffffffffffffffffffffffff16021790555050600d73ffcf8fdee72ac11b5c542428b35eef5769c409f090806001815401808255809150509060018203906000526020600020016000909192909190916101000a81548173ffffffffffffffffffffffffffffffffffffffff021916908373ffffffffffffffffffffffffffffffffffffffff16021790555050600d7322d491bde2303f2f43325b2108d26f1eaba1e32b90806001815401808255809150509060018203906000526020600020016000909192909190916101000a81548173ffffffffffffffffffffffffffffffffffffffff021916908373ffffffffffffffffffffffffffffffffffffffff16021790555050565b6120d1806103496000396000f3006080604052600436106100ba576000357c0100000000000000000000000000000000000000000000000000000000900463ffffffff16806302b11082146100f557806321c850a01461010c578063237819fe146101375780632e1a7d4d146101a35780632e518464146101d057806359109b6414610227578063736d95aa1461029357806386b81eb6146102c05780638da5cb5b14610337578063ab0da5a91461038e578063c651aada146103d1578063daea85c514610428575b60011515600860009054906101000a900460ff1615151415156100dc57600080fd5b6000341115156100eb57600080fd5b6100f361046b565b005b34801561010157600080fd5b5061010a610606565b005b34801561011857600080fd5b506101216106e8565b6040518082815260200191505060405180910390f35b34801561014357600080fd5b5061014c610707565b6040518080602001828103825283818151815260200191508051906020019060200280838360005b8381101561018f578082015181840152602081019050610174565b505050509050019250505060405180910390f35b3480156101af57600080fd5b506101ce60048036038101908080359060200190929190505050610795565b005b3480156101dc57600080fd5b50610211600480360381019080803573ffffffffffffffffffffffffffffffffffffffff169060200190929190505050610c4e565b6040518082815260200191505060405180910390f35b34801561023357600080fd5b5061023c610c96565b6040518080602001828103825283818151815260200191508051906020019060200280838360005b8381101561027f578082015181840152602081019050610264565b505050509050019250505060405180910390f35b34801561029f57600080fd5b506102be60048036038101908080359060200190929190505050610d46565b005b3480156102cc57600080fd5b50610321600480360381019080803573ffffffffffffffffffffffffffffffffffffffff169060200190929190803573ffffffffffffffffffffffffffffffffffffffff169060200190929190505050610fed565b6040518082815260200191505060405180910390f35b34801561034357600080fd5b5061034c611074565b604051808273ffffffffffffffffffffffffffffffffffffffff1673ffffffffffffffffffffffffffffffffffffffff16815260200191505060405180910390f35b34801561039a57600080fd5b506103cf600480360381019080803573ffffffffffffffffffffffffffffffffffffffff16906020019092919050505061109e565b005b3480156103dd57600080fd5b50610412600480360381019080803573ffffffffffffffffffffffffffffffffffffffff1690602001909291905050506113fa565b6040518082815260200191505060405180910390f35b34801561043457600080fd5b50610469600480360381019080803573ffffffffffffffffffffffffffffffffffffffff169060200190929190505050611464565b005b60008060003373ffffffffffffffffffffffffffffffffffffffff1673ffffffffffffffffffffffffffffffffffffffff16815260200190815260200160002054111561050357346000803373ffffffffffffffffffffffffffffffffffffffff1673ffffffffffffffffffffffffffffffffffffffff168152602001908152602001600020600082825401925050819055506105b6565b346000803373ffffffffffffffffffffffffffffffffffffffff1673ffffffffffffffffffffffffffffffffffffffff16815260200190815260200160002060008282540192505081905550600b3390806001815401808255809150509060018203906000526020600020016000909192909190916101000a81548173ffffffffffffffffffffffffffffffffffffffff021916908373ffffffffffffffffffffffffffffffffffffffff160217905550505b3373ffffffffffffffffffffffffffffffffffffffff167f4af4040804455d5519363ab32562d3354dc05571e414cec4d799a581d6e6b3a7346040518082815260200191505060405180910390a2565b60011515600160003373ffffffffffffffffffffffffffffffffffffffff1673ffffffffffffffffffffffffffffffffffffffff16815260200190815260200160002060009054906101000a900460ff16151514151561066557600080fd5b60003073ffffffffffffffffffffffffffffffffffffffff163111151561068b57600080fd5b60011515600860009054906101000a900460ff1615151415156106ad57600080fd5b3073ffffffffffffffffffffffffffffffffffffffff1631600a819055506000600860006101000a81548160ff021916908315150217905550565b60003073ffffffffffffffffffffffffffffffffffffffff1631905090565b6060600b80548060200260200160405190810160405280929190818152602001828054801561078b57602002820191906000526020600020905b8160009054906101000a900473ffffffffffffffffffffffffffffffffffffffff1673ffffffffffffffffffffffffffffffffffffffff1681526020019060010190808311610741575b5050505050905090565b6000801515600860009054906101000a900460ff1615151415156107b857600080fd5b60011515600560003373ffffffffffffffffffffffffffffffffffffffff1673ffffffffffffffffffffffffffffffffffffffff16815260200190815260200160002060009054906101000a900460ff16151514151561081757600080fd5b81600260003373ffffffffffffffffffffffffffffffffffffffff1673ffffffffffffffffffffffffffffffffffffffff168152602001908152602001600020541015151561086557600080fd5b81600260003373ffffffffffffffffffffffffffffffffffffffff1673ffffffffffffffffffffffffffffffffffffffff168152602001908152602001600020541415610b57576000600260003373ffffffffffffffffffffffffffffffffffffffff1673ffffffffffffffffffffffffffffffffffffffff168152602001908152602001600020819055506000600560003373ffffffffffffffffffffffffffffffffffffffff1673ffffffffffffffffffffffffffffffffffffffff16815260200190815260200160002060006101000a81548160ff0219169083151502179055506000600360003373ffffffffffffffffffffffffffffffffffffffff1673ffffffffffffffffffffffffffffffffffffffff168152602001908152602001600020819055506000600460003373ffffffffffffffffffffffffffffffffffffffff1673ffffffffffffffffffffffffffffffffffffffff16815260200190815260200160002081905550600090505b600d80549050811015610aad576000600660003373ffffffffffffffffffffffffffffffffffffffff1673ffffffffffffffffffffffffffffffffffffffff1681526020019081526020016000206000600d84815481101515610a3757fe5b9060005260206000200160009054906101000a900473ffffffffffffffffffffffffffffffffffffffff1673ffffffffffffffffffffffffffffffffffffffff1673ffffffffffffffffffffffffffffffffffffffff1681526020019081526020016000208190555080806001019150506109d8565b816009600082825403925050819055503373ffffffffffffffffffffffffffffffffffffffff166108fc839081150290604051600060405180830381858888f19350505050158015610b03573d6000803e3d6000fd5b503373ffffffffffffffffffffffffffffffffffffffff167ffca010261c61503eba494501406a4775d0887b49857dc75c92d1cc92a20e4e83836040518082815260200191505060405180910390a2610c4a565b81600260003373ffffffffffffffffffffffffffffffffffffffff1673ffffffffffffffffffffffffffffffffffffffff16815260200190815260200160002060008282540392505081905550816009600082825403925050819055503373ffffffffffffffffffffffffffffffffffffffff166108fc839081150290604051600060405180830381858888f19350505050158015610bfa573d6000803e3d6000fd5b503373ffffffffffffffffffffffffffffffffffffffff167ffca010261c61503eba494501406a4775d0887b49857dc75c92d1cc92a20e4e83836040518082815260200191505060405180910390a25b5050565b60008060008373ffffffffffffffffffffffffffffffffffffffff1673ffffffffffffffffffffffffffffffffffffffff168152602001908152602001600020549050919050565b606060001515600860009054906101000a900460ff161515141515610cba57600080fd5b600e805480602002602001604051908101604052809291908181526020018280548015610d3c57602002820191906000526020600020905b8160009054906101000a900473ffffffffffffffffffffffffffffffffffffffff1673ffffffffffffffffffffffffffffffffffffffff1681526020019060010190808311610cf2575b5050505050905090565b60011515600160003373ffffffffffffffffffffffffffffffffffffffff1673ffffffffffffffffffffffffffffffffffffffff16815260200190815260200160002060009054906101000a900460ff16151514151515610da657600080fd5b60001515600860009054906101000a900460ff161515141515610dc857600080fd5b6000600260003373ffffffffffffffffffffffffffffffffffffffff1673ffffffffffffffffffffffffffffffffffffffff16815260200190815260200160002054141515610e1657600080fd5b80600080600a5491506064600a8302811515610e2e57fe5b049050808311151515610e4057600080fd5b836009543073ffffffffffffffffffffffffffffffffffffffff16310310151515610e6a57600080fd5b600084111515610e7957600080fd5b83600260003373ffffffffffffffffffffffffffffffffffffffff1673ffffffffffffffffffffffffffffffffffffffff16815260200190815260200160002081905550600c3390806001815401808255809150509060018203906000526020600020016000909192909190916101000a81548173ffffffffffffffffffffffffffffffffffffffff021916908373ffffffffffffffffffffffffffffffffffffffff1602179055505083600960008282540192505081905550600e3390806001815401808255809150509060018203906000526020600020016000909192909190916101000a81548173ffffffffffffffffffffffffffffffffffffffff021916908373ffffffffffffffffffffffffffffffffffffffff160217905550503373ffffffffffffffffffffffffffffffffffffffff167f9502d7618553b38b99edbe5d1547756cc9ab18db5ddd0674b051490ca4e2fb4c856040518082815260200191505060405180910390a250505050565b6000600760008373ffffffffffffffffffffffffffffffffffffffff1673ffffffffffffffffffffffffffffffffffffffff16815260200190815260200160002060008473ffffffffffffffffffffffffffffffffffffffff1673ffffffffffffffffffffffffffffffffffffffff16815260200190815260200160002054905092915050565b6000600860019054906101000a900473ffffffffffffffffffffffffffffffffffffffff16905090565b60001515600860009054906101000a900460ff1615151415156110c057600080fd5b60011515600160003373ffffffffffffffffffffffffffffffffffffffff1673ffffffffffffffffffffffffffffffffffffffff16815260200190815260200160002060009054906101000a900460ff16151514151561111f57600080fd5b6000600660008373ffffffffffffffffffffffffffffffffffffffff1673ffffffffffffffffffffffffffffffffffffffff16815260200190815260200160002060003373ffffffffffffffffffffffffffffffffffffffff1673ffffffffffffffffffffffffffffffffffffffff168152602001908152602001600020541415156111aa57600080fd5b6000600260008373ffffffffffffffffffffffffffffffffffffffff1673ffffffffffffffffffffffffffffffffffffffff168152602001908152602001600020541115156111f857600080fd5b6001600660008373ffffffffffffffffffffffffffffffffffffffff1673ffffffffffffffffffffffffffffffffffffffff16815260200190815260200160002060003373ffffffffffffffffffffffffffffffffffffffff1673ffffffffffffffffffffffffffffffffffffffff168152602001908152602001600020819055506001600360008373ffffffffffffffffffffffffffffffffffffffff1673ffffffffffffffffffffffffffffffffffffffff168152602001908152602001600020600082825401925050819055506002600760008373ffffffffffffffffffffffffffffffffffffffff1673ffffffffffffffffffffffffffffffffffffffff16815260200190815260200160002060003373ffffffffffffffffffffffffffffffffffffffff1673ffffffffffffffffffffffffffffffffffffffff168152602001908152602001600020819055506113538161180e565b8073ffffffffffffffffffffffffffffffffffffffff163373ffffffffffffffffffffffffffffffffffffffff167ff810df3b626605dbc005192086f67ae1f96ccb46b942d17dc90f159a1018298e600260008573ffffffffffffffffffffffffffffffffffffffff1673ffffffffffffffffffffffffffffffffffffffff168152602001908152602001600020546040518082815260200191505060405180910390a350565b6000801515600860009054906101000a900460ff16151514151561141d57600080fd5b600260008373ffffffffffffffffffffffffffffffffffffffff1673ffffffffffffffffffffffffffffffffffffffff168152602001908152602001600020549050919050565b60001515600860009054906101000a900460ff16151514151561148657600080fd5b60011515600160003373ffffffffffffffffffffffffffffffffffffffff1673ffffffffffffffffffffffffffffffffffffffff16815260200190815260200160002060009054906101000a900460ff1615151415156114e557600080fd5b6000600660008373ffffffffffffffffffffffffffffffffffffffff1673ffffffffffffffffffffffffffffffffffffffff16815260200190815260200160002060003373ffffffffffffffffffffffffffffffffffffffff1673ffffffffffffffffffffffffffffffffffffffff1681526020019081526020016000205414151561157057600080fd5b6000600260008373ffffffffffffffffffffffffffffffffffffffff1673ffffffffffffffffffffffffffffffffffffffff168152602001908152602001600020541115156115be57600080fd5b6001600660008373ffffffffffffffffffffffffffffffffffffffff1673ffffffffffffffffffffffffffffffffffffffff16815260200190815260200160002060003373ffffffffffffffffffffffffffffffffffffffff1673ffffffffffffffffffffffffffffffffffffffff168152602001908152602001600020819055506001600360008373ffffffffffffffffffffffffffffffffffffffff1673ffffffffffffffffffffffffffffffffffffffff168152602001908152602001600020600082825401925050819055506001600460008373ffffffffffffffffffffffffffffffffffffffff1673ffffffffffffffffffffffffffffffffffffffff168152602001908152602001600020600082825401925050819055506001600760008373ffffffffffffffffffffffffffffffffffffffff1673ffffffffffffffffffffffffffffffffffffffff16815260200190815260200160002060003373ffffffffffffffffffffffffffffffffffffffff1673ffffffffffffffffffffffffffffffffffffffff168152602001908152602001600020819055506117678161180e565b8073ffffffffffffffffffffffffffffffffffffffff163373ffffffffffffffffffffffffffffffffffffffff167f6785be290ed8ae6f56ea596a5b8b77b39d1c96fa2f2d17de1c58be88bb67af4d600260008573ffffffffffffffffffffffffffffffffffffffff1673ffffffffffffffffffffffffffffffffffffffff168152602001908152602001600020546040518082815260200191505060405180910390a350565b60008060001515600860009054906101000a900460ff16151514151561183357600080fd5b6002600460008573ffffffffffffffffffffffffffffffffffffffff1673ffffffffffffffffffffffffffffffffffffffff16815260200190815260200160002054101580156118c357506002600360008573ffffffffffffffffffffffffffffffffffffffff1673ffffffffffffffffffffffffffffffffffffffff1681526020019081526020016000205410155b1561192a576001600560008573ffffffffffffffffffffffffffffffffffffffff1673ffffffffffffffffffffffffffffffffffffffff16815260200190815260200160002060006101000a81548160ff02191690831515021790555061192983611f09565b5b6002600360008573ffffffffffffffffffffffffffffffffffffffff1673ffffffffffffffffffffffffffffffffffffffff168152602001908152602001600020541480156119b857506000600460008573ffffffffffffffffffffffffffffffffffffffff1673ffffffffffffffffffffffffffffffffffffffff16815260200190815260200160002054145b15611c1757600260008473ffffffffffffffffffffffffffffffffffffffff1673ffffffffffffffffffffffffffffffffffffffff168152602001908152602001600020546009600082825403925050819055506000600260008573ffffffffffffffffffffffffffffffffffffffff1673ffffffffffffffffffffffffffffffffffffffff168152602001908152602001600020819055506000600560008573ffffffffffffffffffffffffffffffffffffffff1673ffffffffffffffffffffffffffffffffffffffff16815260200190815260200160002060006101000a81548160ff0219169083151502179055506000600360008573ffffffffffffffffffffffffffffffffffffffff1673ffffffffffffffffffffffffffffffffffffffff168152602001908152602001600020819055506000600460008573ffffffffffffffffffffffffffffffffffffffff1673ffffffffffffffffffffffffffffffffffffffff16815260200190815260200160002081905550600091505b600d80549050821015611c0d576000600660008573ffffffffffffffffffffffffffffffffffffffff1673ffffffffffffffffffffffffffffffffffffffff1681526020019081526020016000206000600d85815481101515611b9757fe5b9060005260206000200160009054906101000a900473ffffffffffffffffffffffffffffffffffffffff1673ffffffffffffffffffffffffffffffffffffffff1673ffffffffffffffffffffffffffffffffffffffff168152602001908152602001600020819055508180600101925050611b38565b611c1683611f09565b5b6002600360008573ffffffffffffffffffffffffffffffffffffffff1673ffffffffffffffffffffffffffffffffffffffff16815260200190815260200160002054118015611ca557506002600460008573ffffffffffffffffffffffffffffffffffffffff1673ffffffffffffffffffffffffffffffffffffffff16815260200190815260200160002054105b15611f0457600260008473ffffffffffffffffffffffffffffffffffffffff1673ffffffffffffffffffffffffffffffffffffffff168152602001908152602001600020546009600082825403925050819055506000600260008573ffffffffffffffffffffffffffffffffffffffff1673ffffffffffffffffffffffffffffffffffffffff168152602001908152602001600020819055506000600560008573ffffffffffffffffffffffffffffffffffffffff1673ffffffffffffffffffffffffffffffffffffffff16815260200190815260200160002060006101000a81548160ff0219169083151502179055506000600360008573ffffffffffffffffffffffffffffffffffffffff1673ffffffffffffffffffffffffffffffffffffffff168152602001908152602001600020819055506000600460008573ffffffffffffffffffffffffffffffffffffffff1673ffffffffffffffffffffffffffffffffffffffff16815260200190815260200160002081905550600090505b600d80549050811015611efa576000600660008573ffffffffffffffffffffffffffffffffffffffff1673ffffffffffffffffffffffffffffffffffffffff1681526020019081526020016000206000600d84815481101515611e8457fe5b9060005260206000200160009054906101000a900473ffffffffffffffffffffffffffffffffffffffff1673ffffffffffffffffffffffffffffffffffffffff1673ffffffffffffffffffffffffffffffffffffffff168152602001908152602001600020819055508080600101915050611e25565b611f0383611f09565b5b505050565b600080600090505b600e80549050811015611fa057600e81815481101515611f2d57fe5b9060005260206000200160009054906101000a900473ffffffffffffffffffffffffffffffffffffffff1673ffffffffffffffffffffffffffffffffffffffff168373ffffffffffffffffffffffffffffffffffffffff161415611f9357809150611fa0565b8080600101915050611f11565b600e6001600e8054905003815481101515611fb757fe5b9060005260206000200160009054906101000a900473ffffffffffffffffffffffffffffffffffffffff16600e83815481101515611ff157fe5b9060005260206000200160006101000a81548173ffffffffffffffffffffffffffffffffffffffff021916908373ffffffffffffffffffffffffffffffffffffffff160217905550600e80548091906001900361204e9190612054565b50505050565b81548183558181111561207b5781836000526020600020918201910161207a9190612080565b5b505050565b6120a291905b8082111561209e576000816000905550600101612086565b5090565b905600a165627a7a723058200288e9fda6094c618cc49f7665b9a2d174aa18a478e37777e3fa4506b8fa5bd50029",
  "source": "\npragma solidity ^0.4.20;\n\ncontract MultiSigWallet{\n    \n    //<--- Mappings--->\n    mapping(address => uint) contributorsMapping;\n    mapping(address => bool) signersMapping;\n    mapping(address => uint) submittedProposalMapping;\n    mapping(address => uint) voteCountMapping;\n    mapping(address => uint) approveVotesMapping;\n    mapping(address => bool) proposalApprovedMapping;\n    mapping(address => mapping(address => uint)) individualVotesMapping;\n    mapping(address => mapping(address => uint)) signerVoteMapping;\n    \n    //<--- Standalones  --->\n    bool contributionState;\n    address ownerAddress;\n    uint tempContractBal;\n    uint endContributionBalance;    \n    //<--- Arrays --->\n    address[] contributorsArray;\n    address[] submittedProposalArray;\n    address[] signersArray;\n    address[] opBen;\n    \n    //<--- Constructor Function ---> \n    function MultiSigWallet() public{\n        ownerAddress = msg.sender;\n        contributionState = true;\n        setSigners();\n    }\n    \n    //<--- Modifiers --->\n    modifier onlySigner(){\n        require(signersMapping[msg.sender] == true);\n        _;\n    }\n    modifier contributionStateEnd(){\n        require(contributionState == false);\n        _;\n    }\n    modifier checkValue(uint _valueInWei){\n        uint contractBal = endContributionBalance;\n        uint valueAllowed = uint(contractBal * 10) / uint(100);\n        require(_valueInWei <= valueAllowed);\n        _;\n    }\n    modifier freshProposalOnly(){\n        require(submittedProposalMapping[msg.sender] == 0);\n        _;\n    }\n    modifier noSigner(){\n        require(signersMapping[msg.sender] != true);\n        _;\n    }\n    //<--- Modifiers End --->\n    \n    //<--- Events --->\n    event ReceivedContribution(address indexed _contributor, uint _valueInWei);//Done\n    event ProposalSubmitted(address indexed _beneficiary, uint _valueInWei);//Done\n    event ProposalApproved(address indexed _approver, address indexed _beneficiary, uint _valueInWei);\n    event ProposalRejected(address indexed _approver, address indexed _beneficiary, uint _valueInWei);\n    event WithdrawPerformed(address indexed _beneficiary, uint _valueInWei);\n    //<--- Events End --->\n    \n    //<--- Contribution Functions --->\n    function receiveContribution() internal{\n        if(contributorsMapping[msg.sender] > 0){\n            contributorsMapping[msg.sender] += msg.value;\n        }else{\n            contributorsMapping[msg.sender] += msg.value;\n            contributorsArray.push(msg.sender);\n        }\n        emit ReceivedContribution(msg.sender,msg.value);    \n    }\n    function endContributionPeriod() external onlySigner{\n        require(address(this).balance > 0);\n        require(contributionState == true);\n        endContributionBalance = address(this).balance;\n        contributionState = false;\n    }\n    function listContributors() external view returns (address[]){\n        return contributorsArray;\n    }\n    function getContributorAmount(address _contributor) external view returns (uint){\n        return contributorsMapping[_contributor];\n    }\n    //<--- Contribution Function Ends --->\n    \n    //<--- Submit Proposal Function --->\n    \n    function submitProposal(uint _valueInWei) external noSigner contributionStateEnd freshProposalOnly checkValue(_valueInWei){\n        require(address(this).balance - tempContractBal >= _valueInWei);\n        require(_valueInWei > 0);\n        submittedProposalMapping[msg.sender] = _valueInWei;\n        submittedProposalArray.push(msg.sender);\n        tempContractBal += _valueInWei;\n        opBen.push(msg.sender);\n        emit ProposalSubmitted(msg.sender, _valueInWei);\n    }\n    function listOpenBeneficiariesProposals() external contributionStateEnd view returns (address[]){\n        // address[] opBen;\n        // for(uint i=0;i < submittedProposalArray.length; i++){\n        //     if(voteCountMapping[submittedProposalArray[i]] <= 1){\n        //         opBen.push(submittedProposalArray[i]);\n        //     }\n        // }\n        return opBen;\n    }\n    function getBeneficiaryProposal(address _beneficiary) external contributionStateEnd view returns (uint){\n        return submittedProposalMapping[_beneficiary];\n    }\n\n    //<--- Submit Proposal Function Ends --->\n    \n    //<--- Voting Funcitons --->\n    function popBeneficiary(address _beneficiary) internal{\n        uint index;\n        for(uint i=0;i<opBen.length;i++){\n            if(_beneficiary == opBen[i]){\n                index = i;\n                break;\n            }\n        }\n        opBen[index] = opBen[opBen.length - 1];\n        opBen.length--;\n    }\n    function checkIfApproved(address _beneficiary) internal contributionStateEnd{\n        \n        if(approveVotesMapping[_beneficiary] >= 2 && voteCountMapping[_beneficiary] >= 2){\n            proposalApprovedMapping[_beneficiary] = true;\n            //Pop from Submitted Proposal Array <--> INCOMPLETE\n            popBeneficiary(_beneficiary);\n        }\n        if(voteCountMapping[_beneficiary] == 2 && approveVotesMapping[_beneficiary] == 0){\n            //It means that the proposal is Rejected\n            tempContractBal -= submittedProposalMapping[_beneficiary];\n            submittedProposalMapping[_beneficiary] = 0;\n            proposalApprovedMapping[_beneficiary] = false;\n            voteCountMapping[_beneficiary] = 0;\n            approveVotesMapping[_beneficiary] = 0;\n            for(uint i=0;i<signersArray.length;i++){\n                individualVotesMapping[_beneficiary][signersArray[i]] = 0;\n            }\n            //Pop from Submitted Proposal Array <--> INCOMPLETE\n            popBeneficiary(_beneficiary);\n        }\n        if(voteCountMapping[_beneficiary] > 2 && approveVotesMapping[_beneficiary] < 2){\n            //It means that the proposal is Rejected\n            tempContractBal -= submittedProposalMapping[_beneficiary];\n            submittedProposalMapping[_beneficiary] = 0;\n            proposalApprovedMapping[_beneficiary] = false;\n            voteCountMapping[_beneficiary] = 0;\n            approveVotesMapping[_beneficiary] = 0;\n            for(uint j=0;j<signersArray.length;j++){\n                individualVotesMapping[_beneficiary][signersArray[j]] = 0;\n            }\n            //Pop from Submitted Proposal Array <--> INCOMPLETE\n            popBeneficiary(_beneficiary);\n        }\n    }\n    function approve(address _beneficiary) external contributionStateEnd onlySigner{\n        require(individualVotesMapping[_beneficiary][msg.sender] == 0);\n        require(submittedProposalMapping[_beneficiary] > 0);\n        individualVotesMapping[_beneficiary][msg.sender] = 1;\n        voteCountMapping[_beneficiary] += 1;\n        approveVotesMapping[_beneficiary] += 1;\n        signerVoteMapping[_beneficiary][msg.sender] = 1;\n        checkIfApproved(_beneficiary);\n        emit ProposalApproved(msg.sender, _beneficiary, submittedProposalMapping[_beneficiary]);\n    }\n    function reject(address _beneficiary) external contributionStateEnd onlySigner{\n        require(individualVotesMapping[_beneficiary][msg.sender] == 0);\n        require(submittedProposalMapping[_beneficiary] > 0);\n        individualVotesMapping[_beneficiary][msg.sender] = 1;\n        voteCountMapping[_beneficiary] += 1;\n        signerVoteMapping[_beneficiary][msg.sender] = 2;\n        checkIfApproved(_beneficiary);\n        emit ProposalRejected(msg.sender, _beneficiary, submittedProposalMapping[_beneficiary]);\n    }\n    function getSignerVote(address _signer,address _beneficiary) external view returns(uint){\n        return signerVoteMapping[_beneficiary][_signer];\n    }\n    //<--- Voting Functions End  --->\n    \n    //<--- Withdraw Functions --->\n    function withdraw(uint _valueInWei) external contributionStateEnd{\n        require(proposalApprovedMapping[msg.sender] == true);\n        require(submittedProposalMapping[msg.sender] >= _valueInWei);\n        if(submittedProposalMapping[msg.sender] == _valueInWei){\n            submittedProposalMapping[msg.sender] = 0;\n            proposalApprovedMapping[msg.sender] = false;\n            voteCountMapping[msg.sender] = 0;\n            approveVotesMapping[msg.sender] = 0;\n            for(uint i=0;i<signersArray.length;i++){\n                individualVotesMapping[msg.sender][signersArray[i]] = 0;\n            }\n            tempContractBal -= _valueInWei;\n            msg.sender.transfer(_valueInWei);\n            emit WithdrawPerformed(msg.sender,_valueInWei);\n        }else{\n            submittedProposalMapping[msg.sender] -= _valueInWei;\n            tempContractBal -= _valueInWei;\n            msg.sender.transfer(_valueInWei);\n            emit WithdrawPerformed(msg.sender,_valueInWei);\n        }\n    }\n    //<--- Withdraw Functions End ---> \n    \n    //<--- Get Contract Balance Function --->\n    function contractBalanceFunc() public view returns(uint){\n        return address(this).balance;\n    }\n\n    //<--- Set Signers Function --->\n    function setSigners()internal{\n        signersMapping[address(0x90f8bf6a479f320ead074411a4b0e7944ea8c9c1)] = true;\n        signersMapping[address(0xffcf8fdee72ac11b5c542428b35eef5769c409f0)] = true;\n        signersMapping[address(0x22d491bde2303f2f43325b2108d26f1eaba1e32b)] = true;\n        signersArray.push(address(0x90f8bf6a479f320ead074411a4b0e7944ea8c9c1));\n        signersArray.push(address(0xffcf8fdee72ac11b5c542428b35eef5769c409f0));\n        signersArray.push(address(0x22d491bde2303f2f43325b2108d26f1eaba1e32b));\n    }\n    //<--- Owner Function --->\n    function owner() external view returns(address){\n        return ownerAddress;\n    } \n    //<--- Fallback Function for Receiving Ether --->\n    function() public payable{\n        require(contributionState == true);\n        require(msg.value > 0);\n        receiveContribution();\n    }\n}",
  "sourcePath": "/home/saru/web3uiwork/contracts/MultiSigWallet.sol",
  "compiler": {
    "name": "solc",
    "version": "0.4.24+commit.e67f0147.Emscripten.clang"
  },
  "schemaVersion": "2.0.1",
  "updatedAt": "2018-07-09T06:33:37.660Z"
}