{
  "contractName": "TestContract",
  "abi": [
    {
      "payable": true,
      "stateMutability": "payable",
      "type": "fallback"
    },
    {
      "anonymous": false,
      "inputs": [
        {
          "indexed": false,
          "name": "_addr",
          "type": "address"
        },
        {
          "indexed": false,
          "name": "_value",
          "type": "uint256"
        }
      ],
      "name": "TestMappingEvent",
      "type": "event"
    },
    {
      "constant": false,
      "inputs": [
        {
          "name": "_value",
          "type": "uint256"
        }
      ],
      "name": "setTestMapping",
      "outputs": [],
      "payable": false,
      "stateMutability": "nonpayable",
      "type": "function"
    },
    {
      "constant": true,
      "inputs": [],
      "name": "getTestMapping",
      "outputs": [
        {
          "name": "",
          "type": "uint256"
        }
      ],
      "payable": false,
      "stateMutability": "view",
      "type": "function"
    },
    {
      "constant": true,
      "inputs": [],
      "name": "contractBalance",
      "outputs": [
        {
          "name": "",
          "type": "uint256"
        }
      ],
      "payable": false,
      "stateMutability": "view",
      "type": "function"
    }
  ],
  "bytecode": "0x608060405234801561001057600080fd5b5061021e806100206000396000f300608060405260043610610057576000357c0100000000000000000000000000000000000000000000000000000000900463ffffffff1680638b7afe2e14610059578063af70477914610084578063bca3155a146100af575b005b34801561006557600080fd5b5061006e6100dc565b6040518082815260200191505060405180910390f35b34801561009057600080fd5b506100996100fb565b6040518082815260200191505060405180910390f35b3480156100bb57600080fd5b506100da60048036038101908080359060200190929190505050610141565b005b60003073ffffffffffffffffffffffffffffffffffffffff1631905090565b60008060003373ffffffffffffffffffffffffffffffffffffffff1673ffffffffffffffffffffffffffffffffffffffff16815260200190815260200160002054905090565b806000803373ffffffffffffffffffffffffffffffffffffffff1673ffffffffffffffffffffffffffffffffffffffff168152602001908152602001600020819055507f642807ef095c2a55155bb94da6e7fa39a137ebca2097ac997867c494a5e343493382604051808373ffffffffffffffffffffffffffffffffffffffff1673ffffffffffffffffffffffffffffffffffffffff1681526020018281526020019250505060405180910390a1505600a165627a7a723058207591761150cb83cc65502d2dcc29d5b84f1811b6dac669a6870289e625c5b0a30029",
  "source": "pragma solidity ^0.4.24;\n\ncontract TestContract{\n    mapping(address => uint) testMapping;\n    event TestMappingEvent(address _addr, uint _value);\n    function setTestMapping(uint _value) public{\n        testMapping[msg.sender] = _value;\n        emit TestMappingEvent(msg.sender,_value);\n    }\n    function getTestMapping() public view returns(uint){\n        return testMapping[msg.sender];\n    }\n    function() public payable{}\n    function contractBalance() public view returns(uint){\n        return address(this).balance;\n    }\n}",
  "sourcePath": "/home/saru/web3uiwork/contracts/TestContract.sol",
  "compiler": {
    "name": "solc",
    "version": "0.4.24+commit.e67f0147.Emscripten.clang"
  },
  "schemaVersion": "2.0.1",
  "updatedAt": "2018-07-09T06:33:37.332Z"
}